:100000000C9451000C9479000C9479000C947900B4
:100010000C9479000C9479000C9479000C9479007C
:100020000C9479000C9479000C9479000C9479006C
:100030000C9479000C9479000C9479000C9479005C
:100040000C9479000C9479000C9479000C9479004C
:100050000C9479000C9479000C9479000C9479003C
:100060000C9479000C94C9130C9479000C947900C9
:100070000C9479000C9479000C9479000C9479001C
:100080000C9479000C9479000C9479000C9479000C
:100090000C94F6120C9480130C945A130C9479005F
:1000A000F61411241FBECFEFCDBFDFE3DEBF18E291
:1000B000A0E0B8E2E5EEF7E302C005900D92AA30A9
:1000C000B107D9F72DE2AAE0B8E201C01D92A73E20
:1000D000B207E1F710E0C1E5D0E004C02197FE01CE
:1000E0000E940318C035D107C9F70E9439160C9435
:1000F000BC1A0C940000AF92BF92CF92DF92EF92A5
:10010000FF920F931F93CF93DF936C017B018B01C1
:10011000040F151FEB015E01AE18BF08C017D10711
:1001200059F06991D601ED91FC910190F081E02D9B
:10013000C6010995892B79F7C501DF91CF911F91F0
:100140000F91FF90EF90DF90CF90BF90AF90089508
:10015000FC0154894589252F30E0842F90E0821BD3
:10016000930B541710F0CF96089501970895FC0152
:1001700092898389981761F0A389AE0FBF2FB11DB3
:1001800059968C9193899F5F9F73938B90E008950C
:100190008FEF9FEF0895FC0192898389981731F0C2
:1001A0008389E80FF11D818D90E008958FEF9FEF17
:1001B0000895FC0192892389892F90E0805C9F4FEC
:1001C000821B91098F7399270895CF93DF93EC01D8
:1001D000E881F9810680F781E02D0995EC85FD85A0
:1001E00086818F738683EC85FD8585818F758583F8
:1001F0008B898A8B198ADF91CF910895CF93DF93F2
:10020000FC0194898589C485D585981306C08D81A4
:100210008F7D8D83DF91CF910895A589AE0FBF2F7C
:10022000B11DA75ABF4F2C91858990E001968F731D
:100230009927858B80E48C83A485B58512962C93B1
:10024000948985899813E6CFA485B58515968C91F8
:1002500015978F7D15968C9387898823D9F2808D89
:1002600080931301178AD6CFDC011C96ED91FC9187
:100270000FB607FE03C0258125FD04C0248125FD9E
:100280000C94FE000895EF92FF920F931F93CF936B
:10029000DF93EC0181E0898B9C898D8998131CC0C8
:1002A000AC85BD8514968C91149785FF15C0129668
:1002B0006C93AC85BD8580E414968C93EC85FD85AC
:1002C00085818F7D858381E090E0DF91CF911F91C3
:1002D0000F91FF90EF9008958091110180FF08C069
:1002E00080911301888F8E898093130181E08F8B19
:1002F000F62E0C8910E00F5F1F4F0F731127E02EB1
:100300008D898E1104C0CE010E943401F9CFEC8991
:10031000EC0FFD2FF11DE75AFF4FF0820C8BEC859F
:10032000FD8585818062CECFCF93DF93FC0121894B
:100330002223C9F0EC018091110180FF08C0809157
:100340001301808F86898093130181E0878BEC8570
:10035000FD85858185FD03C0848186FD04C0CE01B5
:100360000E943401F4CFDF91CF910895282F30E01F
:10037000F901E65FF94840814F3F09F44EC08B32E6
:1003800058F4F901E454FA48E081EE2329F0E13011
:1003900099F010F0E63010F1F901E051FA48E081EF
:1003A000A0E2EA9FF0011124FC5F8081842311F117
:1003B000672BF1F446830895E091010AD901AA520E
:1003C000BA485C915C5F81E090E001C0880F5A956B
:1003D000EAF780958E238093010ADECF80E1E89FC3
:1003E000F0011124E05AF54F81818F7E8183D4CFB3
:1003F000458308952A523A48D9018C91309771F07B
:100400008F3F61F07096E80FF11D9FB7F8948081DF
:10041000672B39F4877F80839FBF0895F0E0E0E089
:10042000F4CF8860F8CFCF92DF92EF92FF920F93D4
:100430001F93CF93DF93EC016A017B01022F89891F
:10044000882339F0E881F9810288F389E02DCE0113
:10045000099598898091E205892B8093E2051FB761
:10046000F89460E070E281EA97E0A70196010E94AB
:10047000AF1769017A018FEFC81AD80AE80AF80A9B
:10048000F694E794D794C794EC85FD8586818D7F9B
:100490008683EC85FD8586818683198AA091231148
:1004A0000A2E000CBB0BA70196010E94FB1720E04F
:1004B00034E040E050E00E94D117EC85FD85C20E8B
:1004C000D31EE41EF51EC086D186EC85FD8507830C
:1004D000EC85FD858681806C8683EC85FD85858134
:1004E000806885838E858B3228F590E0FC01E65F7D
:1004F000F94820812F3FF1F0FC01E051FA48A0813A
:10050000E0E2AE9FD0011124BC5F8A529A48FC0100
:100510003081F0E0E0E03F3F29F0CD014096FC0162
:10052000E30FF11D9FB7F89412962C938081886099
:1005300080839FBF8F858B3220F461E070E00E9442
:10054000B6018F858B3288F490E0FC01E65FF948B4
:1005500020812F3F51F080519A48DC01EC91B0E2AC
:10056000EB9FF0011124FC5F21831FBFDF91CF912E
:100570001F910F91FF90EF90DF90CF900895CF9350
:10058000DF938FB7F89420913E2830913F28409117
:10059000402850914128E091BA0A9091B60A90FF04
:1005A00006C02F5F3F4F4F4F5F4FE091BA0A8FBF9A
:1005B000A0913C28B0913D28C0913A28D0913B2889
:1005C0000E94F017EC9F9001ED9F300D1124620FF7
:1005D000731F811D911DDF91CF9108952FB7F8945E
:1005E0006091362870913728809138289091392869
:1005F0002FBF089581E00895CF92DF92EF92FF928E
:100600000F931F93CF93DF93EC01603282E0780762
:10061000CCF5653B710514F064EB70E0898128E846
:1006200030E0281B310987FD3395220F331F220F3D
:10063000331F6901330FEE08FF088A8128E532E095
:10064000281B310987FD3395220F331F220F331FDB
:10065000032E000C440B550B2C193D094E095F0964
:10066000DB0177FF02C0B0E0A0E00E94FB1724EBA3
:1006700030E040E050E00E94D117C20ED31EE41ECD
:10068000F51EB601F8808BE08F1508F449C089810A
:1006900008E810E0081B110987FD1395000F111FD2
:1006A000000F111F601771077CF08A8108E512E0C6
:1006B000081B110987FD1395000F111F000F111F53
:1006C000601771070CF48B0160910028709101286C
:1006D000809102289091032820E432E44FE050E01A
:1006E0000E94AF1784E0369527958A95E1F705506B
:1006F0001109209FC001219F900D309F900D112462
:100700009C0136952795369527958F2D90E0FC0115
:10071000EE0FFF1FE80FF91FE45FF74D21833283CF
:10072000DF91CF911F910F91FF90EF90DF90CF90CD
:100730000895CF93DF93DC018C918C3008F04BC08F
:10074000FB01E65FF94890819F3F51F0FB01E051CA
:10075000FA48E08120E2E29FF0011124FC5F9183DE
:10076000282F30E0E901CC0FDD1FFE01E20FF31F5F
:10077000E45FF74D962F9F736081607C692B6083E7
:1007800011961C92119712961C9250E040E0FA01CB
:10079000EE0FFF1FE40FF51FE45FF74D908196FD0C
:1007A00012C04F5F5F4F4C30510589F794E0909332
:1007B000A00A1092A10A91E09093A50A9091A00A34
:1007C00091609093A00A2C0F3D1FF901E45FF74D53
:1007D000908190649083DF91CF9108958A579B4FC9
:1007E000FC018081089588E796E7089589E996E7F6
:1007F0000895805C9F4FFC01808191810895EF9264
:10080000FF920F931F93CF93DF93CDB7DEB725975A
:10081000CDBFDEBF643671054CF0FC01EA57FB4FDB
:100820002081F12CE12C222309F452C0DA017B0152
:100830008C01BC01615E7D4FED91FC910190F081D6
:10084000E02DCA010995B801685E7D4F2FEFDB01ED
:100850002C93F801E75EFD4F2EEF208331968083C5
:10086000319690833196292F280F20952083319639
:10087000E0821696FC9245E050E030E020E07C01FA
:10088000B6E0EB0EF11CE416F50634F0A1912A0F48
:10089000311D4F5F5F4FF7CF7C01E8E0EE0EF11C9A
:1008A000800F911FFC01E15EFD4F20952083F1E058
:1008B000EF16F2E0FF06BCF4D80112968D919C91E0
:1008C000DC01ED91FC910280F381E02DA7010995F7
:1008D000C7012596CDBFDEBFDF91CF911F910F914C
:1008E000FF90EF90089584EB95E789839A8383E0E6
:1008F0008B8380EB96E78C839D83D801ED91FC91EF
:100900000190F081E02DAE014F5F5F4F67E070E036
:10091000C8010995EE24EA94FE2CDACF0F931F93B9
:10092000CF93DF93CDB7DEB72A97CDBFDEBF8C0163
:1009300088EA95E789839A831B821C821D821E8226
:100940001F82188619861A86D801ED91FC910190B4
:10095000F081E02DAE014F5F5F4F6AE070E0C801AB
:1009600009950E94EE02F80160877187828793875C
:100970002A96CDBFDEBFDF91CF911F910F910895D1
:10098000CF92DF92EF92FF92DC011D921D921D9299
:100990001C921397FB0130E020E0419150E0022EC1
:1009A00002C0440F551F0A94E2F7052E000C660B97
:1009B000770BCD90DD90ED90FC9013974C295D293D
:1009C0006E297F294D935D936D937C931397285FD8
:1009D0003F4F2032310509F7FF90EF90DF90CF9025
:1009E0000895FC01408351831282138208954F922F
:1009F0005F926F927F928F929F92AF92BF92CF92AF
:100A0000DF92EF92FF92CF93DF93FC01C2A1D3A1BB
:100A1000688179818A819B810E941D182B01CB01FD
:100A2000835591098A9708F04CC06C817D818E8135
:100A30009F810E941D184B01CB0188549109CD97CD
:100A400008F03FC0688579858A859B850E941D18BE
:100A50006B01653B7105A8F5B20180EE9DE20E9435
:100A6000FC02B4018DED9DE20E94FC02B6018AED0C
:100A70009DE20E94FC0264ED70E06419750987ED47
:100A80009DE20E94FC0268EB70E06819790984ED30
:100A90009DE20E94FC026EEA70E06C197D0981ED16
:100AA0009DE2DF91CF91FF90EF90DF90CF90BF90CC
:100AB000AF909F908F907F906F905F904F900C942D
:100AC000FC02DF91CF91FF90EF90DF90CF90BF902D
:100AD000AF909F908F907F906F905F904F90089510
:100AE00089EE96E708958AE097E708954F925F921E
:100AF0006F927F928F929F92AF92BF92EF92FF92EE
:100B00000F931F93CF93DF9300D000D0CDB7DEB704
:100B10007C018B01FB01808190E0B0E0A0E0F70157
:100B200082839383A483B583FB012181922BF701F8
:100B300082839383A483B583FB012281A22BF701D7
:100B400082839383A483B583FB012381B22BF701B6
:100B500082839383A483B583FB01848190E0B0E01A
:100B6000A0E0F70186839783A087B187FB012581E9
:100B7000922BF70186839783A087B187FB0126819B
:100B8000A22BF70186839783A087B187FB0127817A
:100B9000B22BF70186839783A087B187FB018085FD
:100BA00090E0B0E0A0E0F70182879387A487B58743
:100BB000FB012185922BF70182879387A487B58754
:100BC000FB012285A22BF70182879387A487B58733
:100BD000FB012385B22BF70182879387A487B58712
:100BE000645F7F4FCE0101960E94C00489819A8183
:100BF000AB81BC814C015D01F0E18F0E911CA11C09
:100C0000B11CA801415F5F4FFA0120E130E02901EA
:100C1000712C612C481459046A047B0428F4618106
:100C200061932F5F3F4FF3CFF801E80FF91F17864D
:100C3000F7014687578740962496CDBFDEBFDF91E8
:100C4000CF911F910F91FF90EF90BF90AF909F9029
:100C50008F907F906F905F904F9008958AE197E713
:100C600008958CE795E708958BE397E708958CE561
:100C700097E708954F925F926F927F928F929F9223
:100C8000AF92BF92EF92FF920F931F93CF93DF9398
:100C900000D000D0CDB7DEB77C018B01FB01819184
:100CA000BF01F7018283CE0101960E94C0048981B1
:100CB0009A81AB81BC814C015D01F5E08F0E911CE6
:100CC000A11CB11CA8014C5F5F4FFA0125E030E088
:100CD0002901712C612C481459046A047B0428F4FE
:100CE000618161932F5F3F4FF3CFF801E80FF91F48
:100CF0001482F7014383548305962496CDBFDEBF4B
:100D0000DF91CF911F910F91FF90EF90BF90AF9027
:100D10009F908F907F906F905F904F9008958FE697
:100D200097E7089580E997E708954F925F926F9251
:100D30007F928F929F92AF92BF92CF92DF92EF926B
:100D4000FF920F931F93CF93DF93CDB7DEB72C970E
:100D5000CDBFDEBF7C018B01DB018C9190E0F70100
:100D60008283938311962C91922B828393836E5F5F
:100D70007F4FCE0101960E94C00489809A80AB808B
:100D8000BC8024013501F6E04F0E511C611C711C22
:100D900098012B5F3F4FF90186E090E0AC0170E0D5
:100DA00060E0441555056605770520F441814193BF
:100DB0000196F4CFB4016A5F7F4FF801E80DF91D89
:100DC0001582D70114962D933C931597600F711FD0
:100DD000CE0105960E94C004BAE08B0E911C4D8096
:100DE0005E806F807884C401092C000CAA0BBB0BB9
:100DF0005C016D01A40CB51CC61CD71CF801E80DE4
:100E0000F91DAF01401B510B70E060E04A155B0516
:100E10006C057D0538F42191AF0142505109DA018A
:100E20002C93EFCF480C591CB801640D751DFB01C4
:100E300031971082C4010197800F911FF7018683BB
:100E40009783CE0109960E94C00492012C5F3F4F08
:100E500089849A84AB84BC84A901032E000C660BA0
:100E6000770B480D591D6A1D7B1DF801E20FF31F1A
:100E7000CF01801B910BB0E0A0E084179507A60777
:100E8000B70728F48191DF0112978C93F1CFC90144
:100E9000880D991DF801E80FF91FDF0111971C92C9
:100EA00021503109020F131FD70118960D931C937F
:100EB00019972181428150E070E060E0BA01552726
:100EC0004427522B2081422B2381722BF70142872A
:100ED00053876487758704962C96CDBFDEBFDF915C
:100EE000CF911F910F91FF90EF90DF90CF90BF9027
:100EF000AF909F908F907F906F905F904F900895EC
:100F000089EA97E708958AEC97E70895FC01DB01E9
:100F10004C9150E070E060E04283538364837583BA
:100F200011968C911197582B428353836483758358
:100F300012968C911297682B428353836483758336
:100F400013968C911397782B428353836483758314
:100F500014964C91149750E070E060E046835783FC
:100F60006087718715968C911597582B4683578308
:100F70006087718716968C911697682B46835783E6
:100F80006087718717968C91782B4683578360878B
:100F9000718788E090E00895DC01FB0112968C9146
:100FA0001297808313968C911397818314968C915A
:100FB0001497828315968C911597838316968C913E
:100FC0001697848317968C911797858318968C9122
:100FD0001897868319968C91878388E090E008950E
:100FE000CF92DF92EF92FF920F931F93DC01FB01F0
:100FF00013960C91139710E030E020E084E03695D2
:101000002795179507958A95D1F714964C911497C3
:1010100050E070E060E094E0440F551F661F771FBA
:101020009A95D1F7042B152B262B372B15969C91CF
:101030001597492F50E070E060E08CE0440F551F99
:10104000661F771F8A95D1F7042B152B262B372B7C
:101050001696CC901697D12CF12CE12CB701A60155
:1010600094E1440F551F661F771F9A95D1F74427C7
:101070005527607F7727402B512B622B732B1796B8
:101080000C9180E1089F90011124207F3770D701D7
:10109000C60114E0B695A795979587951A95D1F74F
:1010A000822B932B8F3F27E0920709F454C08F3790
:1010B00024E0920708F052C0813823E09207C4F17F
:1010C000805893404F3F2FEF52076207710509F098
:1010D0004AC010E030E020E0302F222711270027FF
:1010E00000271127222730787695679557954795E1
:1010F000402B512B622B732B092E000CAA0BBB0B20
:1011000017E1880F991FAA1FBB1F1A95D1F7842BCF
:10111000952BA62BB72B80839183A283B38388E082
:1011200090E01F910F91FF90EF90DF90CF90089586
:10113000893623E0920764F0716021E833E0281BD0
:10114000390B04C076956795579547952A95D2F740
:1011500090E080E0B7CF8FEF90E0B4CF40E050E078
:10116000BA018FEF90E04F5F5F4F6F4F7F4FB1CF6E
:101170008F929F92AF92BF92CF92DF92EF92FF92A7
:101180001F93CF93DF93EC016A017B01DB01CA015E
:1011900017E1B595A795979587951A95D1F7992752
:1011A0006F7777278F3F910509F463C0009709F4A3
:1011B00049C080589C4F188219821A82242F229588
:1011C000220F207E2B834A015B0123E0B694A79473
:1011D000979487942A95D1F78C824A015B013BE072
:1011E000B694A794979487943A95D1F78D82282F37
:1011F0002295207FE3E17695679557954795EA9587
:10120000D1F7422B4E83F4E095958795FA95E1F757
:10121000182F1F7720E030E0A901C701B6010E9416
:10122000181887FD29C01F8388E090E0DF91CF91D7
:101230001F91FF90EF90DF90CF90BF90AF909F9065
:101240008F900895411551056105710509F4B3CFDB
:10125000440F551F661F771F80E893E067FD06C0A7
:10126000440F551F661F771F0197F8CF6F777727B9
:10127000A2CF8FEF97E09FCF812F80688F83D4CF4D
:10128000DC01ED91FC910088F189E02D23E030E054
:1012900009942F923F924F925F926F927F928F921A
:1012A0009F92AF92BF92CF92DF92EF92FF920F93F5
:1012B0001F93CF93DF93CDB7DEB72897CDBFDEBFA7
:1012C0008C016B0102960E9476057C01F601E80F05
:1012D000F91F808191818280912CB12CA12C540125
:1012E00099248824992A882A8381B82A24E0E20E46
:1012F000F11CF80182899389A489B589881599051B
:10130000AA05BB0560F4B401660F771F808D918D2F
:101310000E94A018D80158968D939C935997F80174
:10132000828A938AA48AB58A412C512C32011801F1
:10133000F6E12F0E311CF601EE0DFF1DD80152967D
:101340004D915D916D917C915597C70104967C01FB
:10135000441655066606770608F04FC0BF01CE0159
:1013600001960E94C00489819A81AB81BC818D83E2
:101370009E83AF83B887A7010F2C000C660B770BF9
:10138000480F591F6A1F7B1FF601EE0DFF1D4F010D
:101390008C189D08B12CA12C84169506A606B706BC
:1013A00038F4B1909F0122503109D901BC92EFCF9E
:1013B0008D819E818E0D9F1DF601E80FF91F3197DB
:1013C0001082B1E0EB1AF108EC0CFD1CF801E68A82
:1013D000F78A7C01C201880F991F008CF18DE02DE6
:1013E000E80FF91FD1018D919C9180839183BFEF0C
:1013F0004B1A5B0A6B0A7B0A9ECF808191818280A7
:10140000912CB12CA12C540199248824992A882A42
:101410008381B82AF801828D938DA48DB58D8815AE
:101420009905AA05BB0570F4B401660F771F660F16
:10143000771F82A193A10E94A018D80192968D9344
:101440009C939397F801828E938EA48EB58EB12CC7
:10145000A12C412C512C32014801FEE18F0E911C30
:10146000F601EE0DFF1DD8015A964D915D916D91DB
:101470007C915D974416550666067706D0F4B40154
:10148000CF010E94F007E80EF91EF801A2A1B3A156
:10149000AA0DBB1D84E0F40101900D928A95E1F73D
:1014A000FFEF4F1A5F0A6F0A7F0A24E0A20EB11CF9
:1014B000D7CF808191818280912CB12CA12C5401B5
:1014C00099248824992A882A8381B82A84E0E80EFE
:1014D000F11CF80184A195A1A6A1B7A188159905D1
:1014E000AA05BB0570F4B401660F771F660F771F5E
:1014F00084A595A50E94A018D8019C968D939C93D5
:101500009D97F80184A295A2A6A2B7A2B12CA12C06
:10151000412C512C32014801F8E28F0E911CF6014A
:10152000EE0DFF1DD80194964D915D916D917C91CA
:1015300097974416550666067706D0F4B401CF0196
:101540000E94F007E80EF91EF801A4A5B5A5AA0DA2
:10155000BB1D84E0F40101900D928A95E1F7FFEF45
:101560004F1A5F0A6F0A7F0A24E0A20EB11CD7CF80
:10157000808191818280912CB12CA12C54019924DD
:101580008824992A882A8381B82A84E0E80EF11CED
:10159000F80186A597A5A0A9B1A988159905AA055E
:1015A000BB0570F4B401660F771F660F771F86A91D
:1015B00097A90E94A018D801D6968D939C93D7978F
:1015C000F80186A697A6A0AAB1AAB12CA12C412CFD
:1015D000512C32014801F2E38F0E911CF80186A5CF
:1015E00097A5A0A9B1A9481659066A067B06E0F49A
:1015F000B401C6018E0D9F1D0E94F007E80EF91E72
:10160000F801A6A9B7A9AA0DBB1D84E0F4010190B9
:101610000D928A95E1F7FFEF4F1A5F0A6F0A7F0A72
:1016200024E0A20EB11CDACFC7012896CDBFDEBFE1
:10163000DF91CF911F910F91FF90EF90DF90CF90AE
:10164000BF90AF909F908F907F906F905F904F90E2
:101650003F902F9008950F931F93CF93DF938C01AA
:10166000EC012696CE010E944909D801DE96ED9143
:10167000FC91CE01DF91CF911F910F9109942F9290
:101680003F924F925F926F927F928F929F92AF9212
:10169000BF92CF92DF92EF92FF920F931F93CF935F
:1016A000DF93CDB7DEB72E97CDBFDEBF8C016B01C8
:1016B000DB018D909D90AD90BC90FC018281938167
:1016C000A481B58188159905AA05BB0570F4B401FC
:1016D000660F771F660F771F828593850E94A0187B
:1016E000D8011A968D939C931B97F801828293825E
:1016F000A482B582C60140E050E0BA01A4E0EA2E1F
:10170000F12C98012A5F3F4FDC011596EC9115975B
:1017100016964C901697512C712C612C3201552441
:1017200044245E2A1496EC9114974E2A1796EC9155
:101730007E2AD7011701E4E02E0E311C71010496B8
:10174000F80182809380A480B580481559056A0508
:101750007B05A8F446825782608671861497A2841E
:10176000B384AA0DBB1DE4E0BE2EF90101900D92D9
:10177000BA94E1F74F5F5F4F6F4F7F4FC5CF8485BE
:101780009585A685B78584159505A605B70570F4DA
:10179000B201660F771F660F771F848995890E94B3
:1017A000A018D80154968D939C935597F8014486C0
:1017B000558666867786C601820D931D412C512C75
:1017C00032011C019801205F3F4FDC0111966C91A2
:1017D000119712968C901297912CB12CA12C540138
:1017E00099248824962A6C91862A13966C91B62A9D
:1017F000B4E0EB0EF11CF8014485558566857785CC
:101800004416550666067706C0F4808A918AA28A35
:10181000B38ABC0162197309A489B589A60FB71FE1
:1018200064E0F90101900D926A95E1F7BFEF4B1A60
:101830005B0A6B0A7B0A0496C8CF86899789A08DBC
:10184000B18D88159905AA05BB0560F4B401660F32
:10185000771F848D958D0E94A018D8015C968D937A
:101860009C935D97F801868A978AA08EB18E412C51
:10187000512C32011801FAE12F0E311CF801868932
:101880009789A08DB18D481659066A067B0608F027
:101890005CC0B6016E0D7F1DCE0101960E94C00492
:1018A00097012C5F3F4F2D873E8789809A80AB80C0
:1018B000BC80C901032E000CAA0BBB0BAC01BD01FF
:1018C000480D591D6A1D7B1D49875A876B877C8788
:1018D000F901EC0DFD1D9F012C193D09B90190E0A6
:1018E00080E029853A854B855C85621773078407FC
:1018F000950728F42191DF0112972C93ECCFED840A
:10190000FE84E80CF91CF601EE0DFF1D31971082E4
:101910008D859E8501978C0D9D1DD8015A968D93BE
:101920009C935B97C201880F991F5C96ED91FC9187
:10193000E80FF91FD1018D919C9180839183BFEFB6
:101940004B1A5B0A6B0A7B0A99CFC7012E96CDBF53
:10195000DEBFDF91CF911F910F91FF90EF90DF904D
:10196000CF90BF90AF909F908F907F906F905F903F
:101970004F903F902F9008952F923F924F925F92F9
:101980006F927F928F929F92AF92BF92CF92DF928F
:10199000EF92FF920F931F93CF93DF93CDB7DEB7F4
:1019A000A697CDBFDEBF8C010E94EE024B015C0109
:1019B000980125573B4F2D8B3E8BF90180819181FA
:1019C000A281B38175016401C81AD90AEA0AFB0A27
:1019D000D701C601893F9A42A105B10510F035979C
:1019E0001082180134E8231A3BEF330AD1018D919C
:1019F0009C91892B79F0F801E157FB4F808191810F
:101A0000A281B38188159905AA05BB0518F4F101D7
:101A10001082118298012C573B4F298B3A8BA801D9
:101A200040585B4F4B8B5C8BC80148968F8B988FCF
:101A3000D801AA57BB4FAB8FBC8FF801EC56FB4FB8
:101A4000ED8FFE8F215F3F4F2F8F38A342505109FA
:101A50004F87588B86599B4F898F9A8F1996A9A3C8
:101A6000BAA3A50194012C5E3F4F4F4F5F4F2BA3AC
:101A70003CA34DA35EA3F80184899589A689B78903
:101A8000892B8A2B8B2BB9F5D80112968D919C91BD
:101A9000DC01ED91FC910284F385E02D09959C0118
:101AA00097FF3DC0F801EA57FB4F8081882301F181
:101AB0007801B9E7EB1ABBEFFB0AF701808191814E
:101AC000A281B381A5019401281B390B4A0B5B0B42
:101AD000DA01C901853C9940A105B10548F0C8016A
:101AE0000E948E04D7018D929D92AD92BC92139765
:101AF00090E080E0B6C10E94EE02681979098A0977
:101B00009B09F801C488D588E688F788C616D706E9
:101B1000E806F90608F0B8CF8EEF9FEFA2C1A989B9
:101B2000BA898D919C911197820F931F8D939C93ED
:101B3000F1014081518147305105F9F4A98DBA8DE9
:101B40008D919C911197AC014F5F5F4F4D935C93CA
:101B5000800F911FFC01208FAF85B8898D919C91DA
:101B6000119701978D939C93892B09F084CF88E07E
:101B700090E0F101808391837ECF4115510521F5DD
:101B80002F3F310581F481E090E080839183CBA0E9
:101B9000DCA0EDA0FEA0A9A1BAA1CD92DD92ED92AC
:101BA000FC92139768CF0E94EE02681979098A099E
:101BB0009B09693873418105910508F45CCFF801F0
:101BC000EA57FB4F1082A8CF4130510589F42E3FD0
:101BD000310519F482E090E0CCCF10821182EB8DB8
:101BE000FC8D8081811147CFC8010E948E0443CFB4
:101BF0004230510591F4AF85B8892D933C93E98D1E
:101C0000FA8D1082118283E090E0D1018D939C9334
:101C1000E989FA89208331832ECF4330510571F44D
:101C2000322F2227AF85B8898D919C911197280F6B
:101C3000391F2D933C9384E090E09BCF44305105B5
:101C400079F460E071E00E949B178F3F910529F4C1
:101C500085E090E0808391830ECF108211820BCFBC
:101C60004530510569F4AB89BC892D933C9386E0DE
:101C700090E080839183A989BA892D933C93FBCE10
:101C800046305105A1F4322F2227EB89FC8980814F
:101C90009181280F391F2083318387E090E0D101A3
:101CA0008D939C93EF85F889808191815DCF483039
:101CB000510509F0E0CE1082118260E071E00E94CF
:101CC0009B178F3F910509F0D6CEAB89BC89ED916A
:101CD000FC91309709F0DBC0C8010E948E048CE9AA
:101CE00095E789839A831B821C8288EE96E78D8311
:101CF0009E838F83988789879A871B861C861D867B
:101D00001E866801B8EECB1ABBEFDB0A7801E6EB62
:101D1000EE1AEBEFFE0A412C22E0522E612C712CC0
:101D2000D601ED91FC913097A9F1848195818B8347
:101D30009C83808191818D839E8382819381DC014C
:101D4000ED91FC910480F581E02D09958F839887B2
:101D5000D601ED91FC9182819381DC01ED91FC91A2
:101D60000680F781E02D099589879A874B865C86E6
:101D70006D867E86D601ED91FC9160857185D801D6
:101D8000ED91FC910190F081E02DAE014F5F5F4F2E
:101D9000C8010995B2E0CB0ED11CEC14FD0409F08A
:101DA000BFCF412C92E0592E612C712CF701A081FC
:101DB000B1811097E1F112968D919C9113978B83CD
:101DC0009C8314968D919C9115978D839E83ED91A4
:101DD000FC9111970480F581E02DCD0109958F8349
:101DE0009887D7018D919C91DC01ED91FC91068043
:101DF000F781E02D099589879A874B865C866D86E9
:101E00007E86D801ED91FC91C080D180F701808160
:101E10009181DC01ED91FC910280F381E02D099527
:101E2000AE014F5F5F4FBC01C801F6010995F2E0BA
:101E3000EF0EF11CE214F30409F0B8CFF801EA57F1
:101E4000FB4F81E08083319680829182A282B382AF
:101E5000AD89BE898D929D92AD92BC9213978FEF02
:101E60009FEFA696CDBFDEBFDF91CF911F910F915F
:101E7000FF90EF90DF90CF90BF90AF909F908F90AA
:101E80007F906F905F904F903F902F900895EA3031
:101E9000F10509F0A1C088EA95E789839A831B823E
:101EA0001C821D821E821F82188619861A860E9435
:101EB000EE02F801C084D184E284F3849B01AC017A
:101EC0002C193D094E095F0969017A016F89788DE6
:101ED000CE0101960E948607C701B60128EE33E0C5
:101EE00040E050E00E94AF1769017A019B01AC010C
:101EF0008B819C81AD81BE818C0D9D1DAE1DBF1D52
:101F00008B839C83AD83BE8360E472E48FE090E0BA
:101F10000E947717CF80D884E984FA84DC01CB0152
:101F20008C0D9D1DAE1DBF1D8F839887A987BA8715
:101F30000E94EE02CF80D884E984FA8436E3D31A73
:101F400035E6E30A34ECF30A28EE33E040E050E0F3
:101F50000E94AF1729013A019B01AC0160E472E4D1
:101F60008FE090E00E947717A7019601261B370BA0
:101F7000480B590BCA01B9012B813C814D815E810F
:101F8000215031094109510969017A01C418D50864
:101F9000E608F7082601370120E03AEC4AE95BE35E
:101FA0000E94AF17420E531E641E751ED8011C9668
:101FB0004D925D926D927C921F97F801608B718BB0
:101FC000828B938B0E94EE02AD89BE896D937D93C7
:101FD0008D939C9313974FCDE630F10559F46F899B
:101FE000788D8D8D9E8D0E943F0B81E0EF8DF8A145
:101FF000808341CDEB30F10521F4AB8DBC8D1C927B
:102000003ACDEF53FE4FEE0FFF1FE00FF11F80811F
:102010009181009709F42FCDDC01ED91FC910190A5
:10202000F081E02D6F89788D099525CDEF92FF9293
:102030000F931F93CF93DF938C01EB01FC018281FF
:1020400088838381898384818A8385818B83868148
:102050008C8387818D8380858E8381858F83828524
:1020600088878385898784858A8785858B87A685E8
:10207000B785FD0101900020E9F731977F01EA1A49
:10208000FB0AA70170E060E0CE010C960E94F1040B
:10209000F80166857785A701CE0140960E945D19FB
:1020A000C7014096DF91CF911F910F91FF90EF9064
:1020B00008954F925F926F927F928F929F92AF920C
:1020C000BF92CF92DF92EF92FF920F931F93CF9325
:1020D000DF93EC016B0102960E9416108C01F60151
:1020E000E80FF91F8A8980838B8981838C89828399
:1020F0008D8983830C5F1F4F412C512C3201F601D7
:10210000E00FF11F0C5F1F4F4601800E911E8A8960
:102110009B89AC89BD89481659066A067B0650F52D
:102120005201AA0CBB1CA88DB98DAA0DBB1D8D91A7
:102130009C91DC010D900020E9F711977D01E81AD0
:10214000F90AA70170E060E0CF010E94F104888DD8
:10215000998DA80EB91EF50160817181A701C40196
:102160000E945D190E0D1F1DFFEF4F1A5F0A6F0AC7
:102170007F0AC5CF8A8D80838B8D81838C8D8283EE
:102180008D8D8383F12CE12C812C912C5401F6014F
:10219000E00FF11F8A8D9B8DAC8DBD8D8816990641
:1021A000AA06BB06B0F4AAA1BBA1AE0DBF1D4D91FE
:1021B0005D916D917C91CF010E94B808080F191FA5
:1021C0008FEF881A980AA80AB80AE4E0EE0EF11C0C
:1021D000DECF8CA180838DA181838EA182838FA18C
:1021E00083830C5F1F4FF12CE12C812C912C540127
:1021F000F601E00FF11F8CA19DA1AEA1BFA1881631
:102200009906AA06BB06B0F4ACA5BDA5AE0DBF1DD0
:102210004D915D916D917C91CF010E94B808080F9E
:10222000191FFFEF8F1A9F0AAF0ABF0A84E0E80E5A
:10223000F11CDECF8EA580838FA5818388A9828340
:1022400089A983830C5F1F4FF12CE12C812C912CE9
:1022500054018EA59FA5A8A9B9A988169906AA0612
:10226000BB06C0F4EEA9FFA9EE0DFF1D4081518110
:1022700062817381C601800F911F0E94B808080F08
:10228000191FEFEF8E1A9E0AAE0ABE0AF4E0EF0E97
:10229000F11CDFCFC801DF91CF911F910F91FF900B
:1022A000EF90DF90CF90BF90AF909F908F907F90F6
:1022B0006F905F904F9008954F925F926F927F92D0
:1022C0008F929F92AF92BF92CF92DF92EF92FF9246
:1022D0000F931F93CF93DF93EC017B018A81FB0166
:1022E00080838B8181838C8182838D8183833496EB
:1022F000412C512C320104E010E09F012F5F3F4F31
:10230000CF010296DF011396A8010C5F1F4F8A8050
:102310009B80AC80BD80481459046A047B04C8F4D7
:10232000AA85BB85A40FB51F14974C9111962C91CB
:10233000119712969C91129713968C91408321834A
:10234000928383838FEF481A580A680A780A349672
:10235000D4CF4C8540834D85F90140832E85FC0107
:1023600020838F858C93F701E00FF11F412C512CB6
:102370003201AF019F012F5F3F4FCF010296DF0176
:1023800013960C5F1F4F8C849D84AE84BF844814C9
:1023900059046A047B04D8F4CF01841B950BAC89E3
:1023A000BD89A80FB91F3C9111962C9111971296D7
:1023B0009C91129713968C9130832183928383830F
:1023C0008FEF481A580A680A780A3496D3CF4E8994
:1023D00040834F89F9014083288DFC012083898D3A
:1023E0008C93412C512C32018E899F89A88DB98DF7
:1023F000481659066A067B0680F55201AA0CBB1CDA
:10240000EC8DFD8DEA0DFB1DA081B181FD010190D8
:102410000020E9F731976F01CA1ADB0AA60170E0C4
:1024200060E0C701800F911F0E94F1040C5F1F4FF5
:102430008C8D9D8DA80EB91EF50160817181A6015C
:10244000C701800F911F0E945D190C0D1D1DFFEF2C
:102450004F1A5F0A6F0A7F0AC7CFC801DF91CF9179
:102460001F910F91FF90EF90DF90CF90BF90AF90B2
:102470009F908F907F906F905F904F900895EF9214
:10248000FF920F931F93CF93DF938C017B01DC01AD
:1024900012962C911297FB012193CF011396ED9187
:1024A000FC91EF0109900020E9F72197CE1BDF0B8B
:1024B000AE0170E060E00E94F104D80113966D91C6
:1024C0007C91AE01C70105960E945D19CE0105966B
:1024D000DF91CF911F910F91FF90EF900895CF92D0
:1024E000DF92EF92FF920F931F93CF93DF936C01D4
:1024F000EB01DC0112968C911297888313968C91D4
:10250000139789831496ED91FC91DF010D900020C3
:10251000E9F78D01015011090E1B1F0BA80170E096
:1025200060E0CE0102960E94F104F601648175819B
:10253000A801CE0106960E945D19C8010696F60113
:10254000A681B781FD0101900020E9F731977F0155
:10255000EA1AFB0AA70170E060E08C0F9D1F0E9441
:10256000F104065F1F4FD60116966D917C91A7016D
:10257000CE01800F911F0E945D190E0D1F1DF601E7
:10258000A085B185FD0101900020E9F731977F0119
:10259000EA1AFB0AA70170E060E0CE01800F911FEC
:1025A0000E94F1040C5F1F4FD60118966D917C912B
:1025B000A701CE01800F911F0E945D19C701800FF6
:1025C000911FF6016285438534852585C80FD91F83
:1025D000688349833A832B830496DF91CF911F91BF
:1025E0000F91FF90EF90DF90CF9008951F920F9280
:1025F0000FB60F9211242F933F934F935F936F93D6
:102600007F938F939F93AF93BF93409136285091C0
:10261000372860913828709139288091342890911A
:1026200035282091322830913328420F531F611DE5
:10263000711D2091302830913128820F931F883EE0
:1026400023E0920730F0885E93404F5F5F4F6F4FFB
:102650007F4F8093342890933528409336285093A9
:102660003728609338287093392880913E289091BC
:102670003F28A0914028B09141280196A11DB11D8D
:1026800080933E2890933F28A0934028B093412800
:1026900081E08093B60ABF91AF919F918F917F9116
:1026A0006F915F914F913F912F910F900FBE0F90BF
:1026B0001F9018951F920F920FB60F9211242F930F
:1026C0003F934F935F936F937F938F939F93AF93BA
:1026D000BF93EF93FF9382E498E20E94FE00FF9184
:1026E000EF91BF91AF919F918F917F916F915F918A
:1026F0004F913F912F910F900FBE0F901F90189503
:102700001F920F920FB60F9211242F933F934F9366
:102710005F936F937F938F939F93AF93BF93EF9349
:10272000FF93E0914E28F0914F28818181FD2FC0C9
:102730006081809154288F5F8F73909155288917FD
:1027400041F0E0915428F0E0EE5BF74D618F80930B
:1027500054288091DB289091DC28009739F0DC0127
:10276000ED91FC910190F081E02D0995FF91EF91A1
:10277000BF91AF919F918F917F916F915F914F9199
:102780003F912F910F900FBE0F901F901895808151
:10279000EDCF1F920F920FB60F9211240F931F933C
:1027A0002F933F934F935F936F937F938F939F9359
:1027B000AF93BF93CF93DF93EF93FF9380910A285A
:1027C000C0910B28D0E087FF52C01092AC0A109243
:1027D000AD0A80910A288F5F80930A2880910A2889
:1027E000082E000C990B8C179D072CF480910A2859
:1027F0008C300CF46AC0C091AC0AD091AD0A6091E3
:10280000002870910128809102289091032820E4EB
:1028100032E44FE050E00E94AF1754E03695279520
:102820005A95E1F740E85EE3249FC001259F900D93
:10283000349F900D11249695879596958795AE01B6
:1028400070E060E04C5F5F4F6F4F7F4F8C0130E076
:1028500020E0401751076207730708F083C0809398
:10286000AC0A9093AD0A8FEF80930A2863C08091E1
:102870000A28082E000C990B8C179D070CF0A9CF85
:10288000E0910A288E2FEE0F990BFC01EE0FFF1F2F
:10289000E80FF91FE45FF74D808186FF9ACFE09142
:1028A0000A288E2FEE0F990BFC01EE0FFF1FE80F89
:1028B000F91FE45FF74D80818F738B3208F089CF69
:1028C00070E060E00E94B60184CFE0910A288E2F6C
:1028D000EE0F990BFC01EE0FFF1FE80FF91FE45FED
:1028E000F74D808186FF14C0E0910A288E2FEE0FED
:1028F000990BFC01EE0FFF1FE80FF91FE45FF74D86
:1029000080818F738B3220F461E070E00E94B60109
:10291000E0910A288E2FEE0F990BFC01EE0FFF1F9E
:10292000E80FF91FE45FF74D818192818093AC0A33
:102930009093AD0A81E08093A60AFF91EF91DF9119
:10294000CF91BF91AF919F918F917F916F915F9147
:102950004F913F912F911F910F910F900FBE0F90AC
:102960001F9018952496C093AC0AD093AD0A7BCFE4
:10297000CF93DF93C0910B28CC30A0F521E02C0F32
:1029800020930B28FC01C083D0E060910028709157
:102990000128809102289091032820E432E44FE03E
:1029A00050E00E94AF1784E0369527958A95E1F7AD
:1029B0004CED55E0249FC001259F900D349F900D54
:1029C00011249C013695279536952795CE01880FC1
:1029D000991FC80FD91FC45FD74D29833A83DF9150
:1029E000CF9108952FEFFC012083F9CFCF93DF9390
:1029F000C2E4D8E21A821B8288EE93E0A0E0B0E045
:102A00008C839D83AE83BF8388E296E78883998316
:102A100080E698E08C879D8788E18E8789E18F87A3
:102A200080E4888B1A8A1B8A1C8A1D8A86E28E8B18
:102A30001F8A188E1092DB281092DC2880EE9DE20F
:102A40000E94B8148DED9DE20E94B8148AED9DE2BB
:102A50000E94B81487ED9DE20E94B81484ED9DE2B7
:102A60000E94B81481ED9DE20E94B814EFE1F9E2F2
:102A700086E696E780839183C283D38380E091EEDC
:102A8000A0E0B0E084839583A683B7831086118687
:102A9000128613861486158616861786108A118A62
:102AA000128A138A148A158A168A178A80E092E09D
:102AB000E7E3F9E2DF019C011D9221503040E1F78C
:102AC000E7E3FBE2DF019C011D9221503040E1F77A
:102AD00082E3E7E3FDE2DF01282F1D922A95E9F763
:102AE000E9E6FDE2DF011D928A95E9F710929B2D40
:102AF00010929C2D10929D2D10929E2D10929F2D24
:102B00001092A02D1092A12D1092A22D1092A32D03
:102B10001092A42D1092A52D1092A62D1092A72DE3
:102B20001092A82D1092A92D1092AA2D1092AB2DC3
:102B30001092AC2D1092AD2D1092AE2D1092AF2DA3
:102B40001092B02D1092B12D1092B22D8AE596E719
:102B50008093B32D9093B42D1092B52D1092B62D75
:102B60001092B72D1092B82D1092B92D1092BA2D47
:102B70001092BB2D1092BC2D1092BD2D1092BE2D27
:102B80001092BF2D1092C02D1092C12D1092C22D07
:102B90001092C32D1092C42D1092C52D1092C62DE7
:102BA0001092C72D1092C82D1092C92D1092CA2DC7
:102BB0001092CB2D1092CC2D1092CD2D1092CE2DA7
:102BC0001092CF2D1092D02DEDEDF8E280E796E730
:102BD000808391838EE496E78683978382E496E7E9
:102BE0008087918712861386148615861686178627
:102BF000108A118A128A138A148A158A88EE96E737
:102C0000868B978B108E118E128E138E148E158ECE
:102C1000168E178E10A211A212A213A214A215A230
:102C200016A217A210A611A612A613A614A615A6E0
:102C300016A617A610AA11AA12AA13AA14AA15AAB0
:102C400016AA17AA10AE11AE12AE13AE14AE15AE80
:102C500087EF94E086AF97AF81E090E080931D29E5
:102C600090931E2988ED97E784839583DF91CF9118
:102C7000089588ED90E084BF9093610080E094E235
:102C8000A4EFB0E08093002890930128A09302283D
:102C9000B09303288091020686608093020680919B
:102CA0000006816080930006809102068F7C8093ED
:102CB00002068091A0008F788093A0008091020688
:102CC0008061809302061092E20581E08093E40522
:102CD00083E08093010A8FEF90E08093260A90931F
:102CE000270A80E890E08093380A9093390A80930D
:102CF0003A0A90933B0A80933C0A90933D0A8BE0FA
:102D00008093000A8091E50581608093E5058091BC
:102D1000E50582608093E505E0E8FAE037E02FEF13
:102D200090E885E031832487958780837096E03C26
:102D30004AE0F407B9F780E094E080933C28909350
:102D40003D2880913C2890913D282FEF30E0B9013B
:102D50000E94871760933A2870933B2880913C2803
:102D600090913D28E8EEF3E0BF010E948717609341
:102D700032287093332880913C2890913D28BF01E0
:102D80000E94871780933028909331282093BC0AA3
:102D90003093BD0A8091B50A81608093B50A84E0C2
:102DA0008093B00A8091B00A81608093B00A7894D1
:102DB00067E070E080EE9DE20E94990368E070E0B9
:102DC0008DED9DE20E94990369E070E08AED9DE23D
:102DD0000E9499036AE070E087ED9DE20E949903EA
:102DE0006BE070E084ED9DE20E9499036CE070E07E
:102DF00081ED9DE20E94990380E091EEA0E0B0E0B9
:102E00008093232990932429A0932529B0932629E0
:102E10008091212990912229DC01ED91FC91068479
:102E2000F785E02D40E051EE60E070E009951092EA
:102E30009B2D10929C2D10929D2D10929E2D1092E4
:102E4000A12D1092A22D10929F2D1092A02DE9E697
:102E5000FDE290E080E021913191232B09F041C007
:102E6000FC01EE0FFF1FE759F24D2DED38E22083F4
:102E700031838C599F4F8093DF289093E02840E066
:102E800051EE60E070E082E498E20E944009C0E008
:102E9000D0E08FE199E20E94BC0C0E94BF026B015E
:102EA0007C01B0E1CB0EB7E2DB1EE11CF11C20E19E
:102EB000C21627E2D206E104F10438F40E94BF02F0
:102EC000C616D706E806F906C8F30E94BF026C15BD
:102ED0007D058E059F05C8F32097D9F20E9400005A
:102EE000D8CF01968931910509F0B5CFC8CFDB0164
:102EF0008F939F930E94F017BF91AF91A29F800D77
:102F0000911DA39F900DB29F900D11240895AA1BAF
:102F1000BB1B51E107C0AA1FBB1FA617B70710F0C4
:102F2000A61BB70B881F991F5A95A9F780959095F6
:102F3000BC01CD01089597FB072E16F4009407D02D
:102F400077FD09D00E94871707FC05D03EF49095C5
:102F500081959F4F0895709561957F4F0895A1E2E7
:102F60001A2EAA1BBB1BFD010DC0AA1FBB1FEE1F03
:102F7000FF1FA217B307E407F50720F0A21BB30B4E
:102F8000E40BF50B661F771F881F991F1A9469F7CA
:102F900060957095809590959B01AC01BD01CF0126
:102FA0000895052E97FB1EF400940E94E81757FD24
:102FB00007D00E94AF1707FC03D04EF40C94E8171B
:102FC00050954095309521953F4F4F4F5F4F089555
:102FD00090958095709561957F4F8F4F9F4F089585
:102FE0000E940918A59F900DB49F900DA49F800D7D
:102FF000911D11240895B7FF0C94F0170E94F0174B
:10300000821B930B0895EE0FFF1F0590F491E02DA6
:103010000994A29FB001B39FC001A39F700D811DB1
:103020001124911DB29F700D811D1124911D0895D1
:103030000E94531808F481E008950E9424186894AF
:10304000B1110C949A1808950E947F1888F09F5728
:1030500098F0B92F9927B751B0F0E1F0660F771FBC
:10306000881F991F1AF0BA95C9F714C0B13091F0B2
:103070000E949918B1E008950C949918672F782F41
:103080008827B85F39F0B93FCCF386957795679577
:10309000B395D9F73EF490958095709561957F4FE3
:1030A0008F4F9F4F0895990F0008550FAA0BE0E826
:1030B000FEEF16161706E807F907C0F012161306FA
:1030C000E407F50798F0621B730B840B950B39F43A
:1030D0000A2661F0232B242B252B21F408950A26A0
:1030E00009F4A140A6958FEF811D811D089557FD1C
:1030F0009058440F551F59F05F3F71F04795880F66
:1031000097FB991F61F09F3F79F0879508951216FC
:1031100013061406551FF2CF4695F1DF08C01616A8
:1031200017061806991FF1CF869571056105089459
:103130000895E894BB2766277727CB0197F9089570
:10314000B0E0A0E0E6EAF8E10C948D1A8C0100975B
:1031500051F4CB010E9466198C01C801CDB7DEB7CE
:10316000E0E10C94A61AFC01E60FF71F9C01225027
:103170003109E217F30708F49DC0D901CD91DC9124
:103180001197C617D70798F0C530D10530F3CE0197
:1031900004978617970708F3C61BD70B2297C1938E
:1031A000D1936D937C93CF010E94021AD6CF5B011D
:1031B000AC1ABD0A4C018C0E9D1EA091E52DB0915C
:1031C000E62D512C412CF12CE12C109731F58091FA
:1031D000E32D9091E42D8815990509F05CC0461601
:1031E000570608F058C08091042890910528009750
:1031F00041F48DB79EB74091082850910928841B4F
:10320000950BE817F90708F055C0E093E32DF0930C
:10321000E42DF90160837183A0CF8D919C9111976A
:1032200012966C90129713967C901397A815B90577
:1032300059F56C0142E0C40ED11CCA14DB0420F124
:10324000AC014A195B09DA011296159780F0628287
:10325000738240835183D9016D937C93E114F1040F
:1032600071F0D7011296ED93FC93139776CF2296C7
:103270008C0F9D1FF90180839183F301EFCFE093C1
:10328000E52DF093E62D69CF4816590608F42C0178
:103290007D01D3019ACFCB010E9466197C01009772
:1032A00049F0AE01B8010E945D19C8010E94021ADE
:1032B000870153CF10E000E050CFFB01DC0102C0DA
:1032C00001900D9241505040D8F708950F931F93ED
:1032D000CF93DF938230910510F482E090E0E0918B
:1032E000E52DF091E62D30E020E0B0E0A0E0309751
:1032F00099F42115310509F44AC0281B390B2430F3
:103300003105D8F58A819B816115710589F1FB0131
:1033100082839383FE0111C0408151810281138118
:1033200048175907E0F04817590799F4109761F0CA
:1033300012960C93129713961C933296CF01DF913D
:10334000CF911F910F9108950093E52D1093E62DD5
:10335000F4CF2115310551F04217530738F0A90178
:10336000DB019A01BD01DF01F801C1CFEF01F9CF07
:103370008093E52D9093E62DCDCFFE01E20FF31F54
:10338000819391932250310928833983D7CF20919B
:10339000E32D3091E42D232B41F420910628309128
:1033A00007282093E32D3093E42D209104283091B9
:1033B00005282115310541F42DB73EB74091082865
:1033C00050910928241B350BE091E32DF091E42D59
:1033D000E217F307A0F42E1B3F0B2817390778F0EC
:1033E000AC014E5F5F4F2417350748F04E0F5F1F4B
:1033F0004093E32D5093E42D819391939FCFF0E080
:10340000E0E09CCFCF93DF930097E9F0FC01329787
:1034100012821382A091E52DB091E62DED0130E0EE
:1034200020E01097A1F420813181820F931F209119
:10343000E32D3091E42D2817390709F061C0E0939E
:10344000E32DF093E42DDF91CF910895EA01CE179B
:10345000DF07E8F54A815B819E0141155105B1F70F
:10346000E901EA83FB8349915991C40FD51FEC17F9
:10347000FD0761F4808191810296840F951FE90117
:1034800088839983828193818A839B83F0E0E0E043
:1034900012968D919C9113970097B9F52D913C91BF
:1034A0001197CD010296820F931F2091E32D309149
:1034B000E42D2817390739F6309751F51092E52D8C
:1034C0001092E62DA093E32DB093E42DBCCFC283E0
:1034D000D38340815181840F951FC817D90761F4A8
:1034E0004E5F5F4F88819981480F591F40835183F8
:1034F0008A819B81828393832115310509F0B0CFA6
:10350000E093E52DF093E62D9ECFFD01DC01C0CFC9
:1035100012821382D7CF2F923F924F925F926F9277
:103520007F928F929F92AF92BF92CF92DF92EF9253
:10353000FF920F931F93CF93DF93CDB7DEB7CA1BD4
:10354000DB0BCDBFDEBF09942A88398848885F84A9
:103550006E847D848C849B84AA84B984C884DF8033
:10356000EE80FD800C811B81AA81B981CE0FD11D17
:0C357000CDBFDEBFED010895F894FFCF41
:10357C00726F7373657269616C5F6D7367732F52D1
:10358C00657175657374506172616D0000000000A7
:10359C006F12950692068F0600000000CC07860776
:1035AC0083078007000000003F123A0637063406F6
:1035BC0000000003000102000001010000000000F7
:1035CC0000000000000000000000050400050602D9
:1035DC0004010300010001020302010002030405BF
:1035EC0002030504020200050201050004010104A6
:1035FC000404030303030505030300000101201069
:10360C000120400410020801020102040804020116
:10361C0004081020040820100000000043017B0067
:10362C00A8009401D900B700CB0040091302E500B3
:10363C00FA020000000016107605730570050000F4
:10364C00000059104909F603F303000000005C1157
:10365C003F0B31062E0600000000FF03BC0CEE03EE
:10366C00000000002B0BF903F603F303333036365E
:10367C006463643736613663666165663537396213
:10368C006430663334313733653966640073656E84
:10369C00736F725F6D7367732F4A6F696E745374B7
:1036AC00617465004D6573736167652066726F6D3B
:1036BC00206465766963652064726F707065643A26
:1036CC00206D657373616765206C6172676572202C
:1036DC007468616E206275666665722E00323137D1
:1036EC003664656361656362636537386162633351
:1036FC0062393665663034396661626564007374AC
:10370C00645F6D7367732F48656164657200396619
:10371C003065393862646136353938313938366458
:10372C006466353361666137613430653439003134
:10373C003161626437333163323539333332363188
:10374C006364363138336264313264363239350071
:10375C00726F7373657269616C5F6D7367732F4CF5
:10376C006F670030616435316638386663343438DD
:10377C003932663863313036383430373736343690
:10378C0030303500726F7373657269616C5F6D7385
:10379C0067732F546F706963496E666F006364378B
:1037AC0031363663373463353532633331316662E3
:1037BC00636332666535613762633238390073741E
:1037CC00645F6D7367732F54696D65006A6F696E02
:0937DC00745F737461746573007D
:0A37E5000024F4000000E72D80002E
:00000001FF
